{
  "contractName": "Election",
  "abi": [
    {
      "constant": true,
      "inputs": [
        {
          "name": "",
          "type": "bytes32"
        }
      ],
      "name": "candidates",
      "outputs": [
        {
          "name": "",
          "type": "int256"
        }
      ],
      "payable": false,
      "stateMutability": "view",
      "type": "function"
    },
    {
      "constant": false,
      "inputs": [],
      "name": "deleteElection",
      "outputs": [],
      "payable": false,
      "stateMutability": "nonpayable",
      "type": "function"
    },
    {
      "constant": true,
      "inputs": [
        {
          "name": "",
          "type": "address"
        }
      ],
      "name": "votingRoll",
      "outputs": [
        {
          "name": "",
          "type": "int256"
        }
      ],
      "payable": false,
      "stateMutability": "view",
      "type": "function"
    },
    {
      "constant": true,
      "inputs": [],
      "name": "endingBlock",
      "outputs": [
        {
          "name": "",
          "type": "uint256"
        }
      ],
      "payable": false,
      "stateMutability": "view",
      "type": "function"
    },
    {
      "constant": true,
      "inputs": [],
      "name": "isPartial",
      "outputs": [
        {
          "name": "",
          "type": "bool"
        }
      ],
      "payable": false,
      "stateMutability": "view",
      "type": "function"
    },
    {
      "constant": true,
      "inputs": [],
      "name": "numberOfVoters",
      "outputs": [
        {
          "name": "",
          "type": "uint256"
        }
      ],
      "payable": false,
      "stateMutability": "view",
      "type": "function"
    },
    {
      "constant": true,
      "inputs": [],
      "name": "numberOfCandidates",
      "outputs": [
        {
          "name": "",
          "type": "uint256"
        }
      ],
      "payable": false,
      "stateMutability": "view",
      "type": "function"
    },
    {
      "constant": false,
      "inputs": [
        {
          "name": "_candidate",
          "type": "bytes32"
        },
        {
          "name": "_vote",
          "type": "uint256"
        }
      ],
      "name": "vote",
      "outputs": [],
      "payable": false,
      "stateMutability": "nonpayable",
      "type": "function"
    },
    {
      "constant": true,
      "inputs": [
        {
          "name": "",
          "type": "uint256"
        }
      ],
      "name": "votingCandidates",
      "outputs": [
        {
          "name": "",
          "type": "bytes32"
        }
      ],
      "payable": false,
      "stateMutability": "view",
      "type": "function"
    },
    {
      "constant": true,
      "inputs": [],
      "name": "startingBlock",
      "outputs": [
        {
          "name": "",
          "type": "uint256"
        }
      ],
      "payable": false,
      "stateMutability": "view",
      "type": "function"
    },
    {
      "constant": true,
      "inputs": [
        {
          "name": "",
          "type": "uint256"
        }
      ],
      "name": "voters",
      "outputs": [
        {
          "name": "",
          "type": "address"
        }
      ],
      "payable": false,
      "stateMutability": "view",
      "type": "function"
    },
    {
      "inputs": [
        {
          "name": "_voterIDs",
          "type": "address[]"
        },
        {
          "name": "_weights",
          "type": "uint256[]"
        },
        {
          "name": "_candidates",
          "type": "bytes32[]"
        },
        {
          "name": "_isPartial",
          "type": "bool"
        },
        {
          "name": "_startingBlock",
          "type": "uint256"
        },
        {
          "name": "_endingBlock",
          "type": "uint256"
        }
      ],
      "payable": false,
      "stateMutability": "nonpayable",
      "type": "constructor"
    }
  ],
  "bytecode": "0x6060604052341561000f57600080fd5b604051610b1e380380610b1e83398101604052808051820191906020018051820191906020018051820191906020018051906020019091908051906020019091908051906020019091905050600080875111801561006e575085518751145b151561007957600080fd5b6000855111151561008957600080fd5b60008314151561009857600080fd5b86600290805190602001906100ae929190610252565b5084600590805190602001906100c59291906102dc565b50600280549050600381905550600090505b865181101561015f5785818151811015156100ee57fe5b9060200190602002015160016000898481518110151561010a57fe5b9060200190602002015173ffffffffffffffffffffffffffffffffffffffff1673ffffffffffffffffffffffffffffffffffffffff1681526020019081526020016000208190555080806001019150506100d7565b600580549050600681905550600090505b84518110156101dd577fffffffffffffffffffffffffffffffffffffffffffffffffffffffffffffffff6004600087848151811015156101ac57fe5b9060200190602002015160001916600019168152602001908152602001600020819055508080600101915050610170565b826008819055508160098190555083600760006101000a81548160ff02191690831515021790555033600a60006101000a81548173ffffffffffffffffffffffffffffffffffffffff021916908373ffffffffffffffffffffffffffffffffffffffff16021790555050505050505050610397565b8280548282559060005260206000209081019282156102cb579160200282015b828111156102ca5782518260006101000a81548173ffffffffffffffffffffffffffffffffffffffff021916908373ffffffffffffffffffffffffffffffffffffffff16021790555091602001919060010190610272565b5b5090506102d8919061032f565b5090565b82805482825590600052602060002090810192821561031e579160200282015b8281111561031d5782518290600019169055916020019190600101906102fc565b5b50905061032b9190610372565b5090565b61036f91905b8082111561036b57600081816101000a81549073ffffffffffffffffffffffffffffffffffffffff021916905550600101610335565b5090565b90565b61039491905b80821115610390576000816000905550600101610378565b5090565b90565b610778806103a66000396000f3006060604052600436106100af576000357c0100000000000000000000000000000000000000000000000000000000900463ffffffff1680631a0478d5146100b457806333be940d146100ef57806339418071146101045780637b1f337d146101515780638c279f9f1461017a5780639bcc3361146101a75780639c84bb27146101d05780639ef1204c146101f9578063b09b2d4514610229578063d91c98d314610268578063da58c7d914610291575b600080fd5b34156100bf57600080fd5b6100d96004808035600019169060200190919050506102f4565b6040518082815260200191505060405180910390f35b34156100fa57600080fd5b61010261030c565b005b341561010f57600080fd5b61013b600480803573ffffffffffffffffffffffffffffffffffffffff16906020019091905050610381565b6040518082815260200191505060405180910390f35b341561015c57600080fd5b610164610399565b6040518082815260200191505060405180910390f35b341561018557600080fd5b61018d61039f565b604051808215151515815260200191505060405180910390f35b34156101b257600080fd5b6101ba6103b2565b6040518082815260200191505060405180910390f35b34156101db57600080fd5b6101e36103b8565b6040518082815260200191505060405180910390f35b341561020457600080fd5b6102276004808035600019169060200190919080359060200190919050506103be565b005b341561023457600080fd5b61024a60048080359060200190919050506106e3565b60405180826000191660001916815260200191505060405180910390f35b341561027357600080fd5b61027b610707565b6040518082815260200191505060405180910390f35b341561029c57600080fd5b6102b2600480803590602001909190505061070d565b604051808273ffffffffffffffffffffffffffffffffffffffff1673ffffffffffffffffffffffffffffffffffffffff16815260200191505060405180910390f35b60046020528060005260406000206000915090505481565b600a60009054906101000a900473ffffffffffffffffffffffffffffffffffffffff1673ffffffffffffffffffffffffffffffffffffffff163373ffffffffffffffffffffffffffffffffffffffff1614151561036857600080fd5b3073ffffffffffffffffffffffffffffffffffffffff16ff5b60016020528060005260406000206000915090505481565b60095481565b600760009054906101000a900460ff1681565b60035481565b60065481565b6000811115156103cd57600080fd5b60085443101580156103e157506009544311155b15156103ec57600080fd5b6000600160003373ffffffffffffffffffffffffffffffffffffffff1673ffffffffffffffffffffffffffffffffffffffff1681526020019081526020016000205413151561043a57600080fd5b600160003373ffffffffffffffffffffffffffffffffffffffff1673ffffffffffffffffffffffffffffffffffffffff16815260200190815260200160002054811315151561048857600080fd5b7fffffffffffffffffffffffffffffffffffffffffffffffffffffffffffffffff6004600084600019166000191681526020019081526020016000205414806104ec5750600060046000846000191660001916815260200190815260200160002054135b15156104f757600080fd5b7fffffffffffffffffffffffffffffffffffffffffffffffffffffffffffffffff60046000846000191660001916815260200190815260200160002054141561055c576000600460008460001916600019168152602001908152602001600020819055505b600760009054906101000a900460ff1615156105b557600160003373ffffffffffffffffffffffffffffffffffffffff1673ffffffffffffffffffffffffffffffffffffffff1681526020019081526020016000205490505b8060046000846000191660001916815260200190815260200160002060008282540192505081905550600081600160003373ffffffffffffffffffffffffffffffffffffffff1673ffffffffffffffffffffffffffffffffffffffff16815260200190815260200160002054031415610691577fffffffffffffffffffffffffffffffffffffffffffffffffffffffffffffffff600160003373ffffffffffffffffffffffffffffffffffffffff1673ffffffffffffffffffffffffffffffffffffffff168152602001908152602001600020819055506106df565b80600160003373ffffffffffffffffffffffffffffffffffffffff1673ffffffffffffffffffffffffffffffffffffffff168152602001908152602001600020600082825403925050819055505b5050565b6005818154811015156106f257fe5b90600052602060002090016000915090505481565b60085481565b60028181548110151561071c57fe5b90600052602060002090016000915054906101000a900473ffffffffffffffffffffffffffffffffffffffff16815600a165627a7a72305820af117e9123893c034cf59055864784348e9325c0a9bb6b7d252a78eeb90247660029",
  "source": "pragma solidity ^ 0.4.17;\ncontract Election {\n\n    string temp;\n    mapping (address => int) public votingRoll;\n    address[] public voters;\n    uint public numberOfVoters;\n    \n    mapping (bytes32 => int) public candidates;\n    bytes32[] public votingCandidates;\n    uint public numberOfCandidates;\n    \n    bool public isPartial;\n    uint public startingBlock;\n    uint public endingBlock;\n    address electionOwner;\n\n    function Election(address[] _voterIDs, uint[] _weights, bytes32[] _candidates, bool _isPartial ,uint _startingBlock, uint _endingBlock) public{\n        \n        require(_voterIDs.length>0 && _voterIDs.length==_weights.length);\n        require(_candidates.length>0);\n        require(_startingBlock == 0);\n       \n        // require(_startingBlock>=block.number); //Is this really necessary?\n        // require(_endingBlock>=block.number);\n        // require(_endingBlock>_startingBlock);\n        \n        voters = _voterIDs;\n        votingCandidates = _candidates;\n        numberOfVoters = voters.length;\n        for (uint i = 0; i < _voterIDs.length; i++) {\n            votingRoll[_voterIDs[i]] = int(_weights[i]);\n        }\n        \n        numberOfCandidates = votingCandidates.length;\n        for (i = 0; i < _candidates.length; i++) {\n            candidates[_candidates[i]] = -1; //set candidate to -1 as uninitalised\n        }\n        \n        startingBlock = _startingBlock;\n        endingBlock = _endingBlock;        \n        isPartial = _isPartial;\n        electionOwner = msg.sender;\n    }\n    \n    function vote(bytes32 _candidate, uint _vote) public {\n        //require(_vote == 1);\n        require(_vote > 0);\n        require(block.number>=startingBlock && block.number<=endingBlock);\n        require(votingRoll[msg.sender]>0); //check that the caller is regestered voter\n        require(int(_vote)<=votingRoll[msg.sender]); //check that the caller has enough credits to vote\n        require(candidates[_candidate]==-1 || candidates[_candidate]>0); //check that candidate is registered\n        if (candidates[_candidate]==-1) { // reset the initial vote for the candidiate\n            candidates[_candidate] = 0;\n        }\n        \n        if (!isPartial) {  //non-partial vote(All or nothing)\n            _vote = uint(votingRoll[msg.sender]); //set to all the users credits\n        }\n        \n        candidates[_candidate] += int(_vote);\n        if (votingRoll[msg.sender]-int(_vote)==0) {\n            votingRoll[msg.sender] = int(-1);\n        } else {\n            votingRoll[msg.sender] -= int(_vote);    \n        }\n    }\n    \n    function deleteElection() public {\n        require(msg.sender==electionOwner);\n        // require(block.number<startingBlock);\n        selfdestruct(this);\n    }\n}",
  "sourcePath": "/Users/kavilannair/Google Drive/Hack the block/blockPollTesting/contracts/Election.sol",
  "compiler": {
    "name": "solc",
    "version": "0.4.18+commit.9cf6e910.Emscripten.clang"
  },
  "schemaVersion": "1.0.1",
  "updatedAt": "2018-01-30T15:42:38.623Z"
}